{
  "address": "0xCCD431701e157813a02A40E52297c7042277abFd",
  "abi": [
    {
      "inputs": [
        {
          "internalType": "string[]",
          "name": "_candidateName",
          "type": "string[]"
        },
        {
          "internalType": "uint256",
          "name": "_votingTime",
          "type": "uint256"
        }
      ],
      "stateMutability": "nonpayable",
      "type": "constructor"
    },
    {
      "inputs": [],
      "name": "Voting_is_over",
      "type": "error"
    },
    {
      "inputs": [],
      "name": "You_have_already_voted",
      "type": "error"
    },
    {
      "anonymous": false,
      "inputs": [
        {
          "indexed": false,
          "internalType": "uint256",
          "name": "endVoting",
          "type": "uint256"
        }
      ],
      "name": "Voting__endVoting",
      "type": "event"
    },
    {
      "anonymous": false,
      "inputs": [
        {
          "indexed": false,
          "internalType": "uint256",
          "name": "_index",
          "type": "uint256"
        },
        {
          "indexed": false,
          "internalType": "address",
          "name": "_voter",
          "type": "address"
        }
      ],
      "name": "Voting__userVote",
      "type": "event"
    },
    {
      "inputs": [
        {
          "internalType": "string",
          "name": "_name",
          "type": "string"
        }
      ],
      "name": "addCandidate",
      "outputs": [],
      "stateMutability": "nonpayable",
      "type": "function"
    },
    {
      "inputs": [
        {
          "internalType": "uint256",
          "name": "",
          "type": "uint256"
        }
      ],
      "name": "candidates",
      "outputs": [
        {
          "internalType": "string",
          "name": "name",
          "type": "string"
        },
        {
          "internalType": "uint256",
          "name": "vote",
          "type": "uint256"
        }
      ],
      "stateMutability": "view",
      "type": "function"
    },
    {
      "inputs": [],
      "name": "endVoting",
      "outputs": [
        {
          "internalType": "uint256",
          "name": "",
          "type": "uint256"
        }
      ],
      "stateMutability": "view",
      "type": "function"
    },
    {
      "inputs": [],
      "name": "i_owner",
      "outputs": [
        {
          "internalType": "address",
          "name": "",
          "type": "address"
        }
      ],
      "stateMutability": "view",
      "type": "function"
    },
    {
      "inputs": [],
      "name": "showCandidates",
      "outputs": [
        {
          "components": [
            {
              "internalType": "string",
              "name": "name",
              "type": "string"
            },
            {
              "internalType": "uint256",
              "name": "vote",
              "type": "uint256"
            }
          ],
          "internalType": "struct Voting.Candidate[]",
          "name": "",
          "type": "tuple[]"
        }
      ],
      "stateMutability": "view",
      "type": "function"
    },
    {
      "inputs": [],
      "name": "showLeftTime",
      "outputs": [
        {
          "internalType": "uint256",
          "name": "",
          "type": "uint256"
        }
      ],
      "stateMutability": "view",
      "type": "function"
    },
    {
      "inputs": [],
      "name": "startVoting",
      "outputs": [
        {
          "internalType": "uint256",
          "name": "",
          "type": "uint256"
        }
      ],
      "stateMutability": "view",
      "type": "function"
    },
    {
      "inputs": [
        {
          "internalType": "uint256",
          "name": "_index",
          "type": "uint256"
        }
      ],
      "name": "vote",
      "outputs": [],
      "stateMutability": "nonpayable",
      "type": "function"
    }
  ],
  "transactionHash": "0x493566e81a5cd7470d8a0aa145e8c2a98db729058458cc80c7e0a8fae5d548d8",
  "args": [
    [
      "Vitalii",
      "Kovtun"
    ],
    60
  ],
  "numDeployments": 3,
  "solcInputHash": "8de09a82a7dd5f91b96c9213d8a967e6",
  "bytecode": "0x60a06040523480156200001157600080fd5b5060405162001683380380620016838339818101604052810190620000379190620003f0565b60018251116200007e576040517f08c379a000000000000000000000000000000000000000000000000000000000815260040162000075906200048e565b60405180910390fd5b42600281905550603c8162000094919062000601565b42620000a191906200056c565b6003819055503373ffffffffffffffffffffffffffffffffffffffff1660808173ffffffffffffffffffffffffffffffffffffffff1660601b8152505060005b82518110156200018a57600160405180604001604052808584815181106200010e576200010d620007e9565b5b6020026020010151815260200160008152509080600181540180825580915050600190039060005260206000209060020201600090919091909150600082015181600001908051906020019062000167929190620001dc565b50602082015181600101555050808062000181906200070e565b915050620000e1565b507f930628807c30271d732b56982e2189a12ab34b98ddd82c23135f25cefacbacca603c600354620001bd9190620005c9565b604051620001cc9190620004b0565b60405180910390a15050620008da565b828054620001ea90620006a2565b90600052602060002090601f0160209004810192826200020e57600085556200025a565b82601f106200022957805160ff19168380011785556200025a565b828001600101855582156200025a579182015b82811115620002595782518255916020019190600101906200023c565b5b5090506200026991906200026d565b5090565b5b80821115620002885760008160009055506001016200026e565b5090565b6000620002a36200029d84620004f6565b620004cd565b90508083825260208201905082856020860282011115620002c957620002c86200084c565b5b60005b858110156200031e57815167ffffffffffffffff811115620002f357620002f262000847565b5b808601620003028982620003a6565b85526020850194506020840193505050600181019050620002cc565b5050509392505050565b60006200033f620003398462000525565b620004cd565b9050828152602081018484840111156200035e576200035d62000851565b5b6200036b8482856200066c565b509392505050565b600082601f8301126200038b576200038a62000847565b5b81516200039d8482602086016200028c565b91505092915050565b600082601f830112620003be57620003bd62000847565b5b8151620003d084826020860162000328565b91505092915050565b600081519050620003ea81620008c0565b92915050565b600080604083850312156200040a57620004096200085b565b5b600083015167ffffffffffffffff8111156200042b576200042a62000856565b5b620004398582860162000373565b92505060206200044c85828601620003d9565b9150509250929050565b6000620004656021836200055b565b9150620004728262000871565b604082019050919050565b620004888162000662565b82525050565b60006020820190508181036000830152620004a98162000456565b9050919050565b6000602082019050620004c760008301846200047d565b92915050565b6000620004d9620004ec565b9050620004e78282620006d8565b919050565b6000604051905090565b600067ffffffffffffffff82111562000514576200051362000818565b5b602082029050602081019050919050565b600067ffffffffffffffff82111562000543576200054262000818565b5b6200054e8262000860565b9050602081019050919050565b600082825260208201905092915050565b6000620005798262000662565b9150620005868362000662565b9250827fffffffffffffffffffffffffffffffffffffffffffffffffffffffffffffffff03821115620005be57620005bd6200075c565b5b828201905092915050565b6000620005d68262000662565b9150620005e38362000662565b925082620005f657620005f56200078b565b5b828204905092915050565b60006200060e8262000662565b91506200061b8362000662565b9250817fffffffffffffffffffffffffffffffffffffffffffffffffffffffffffffffff04831182151516156200065757620006566200075c565b5b828202905092915050565b6000819050919050565b60005b838110156200068c5780820151818401526020810190506200066f565b838111156200069c576000848401525b50505050565b60006002820490506001821680620006bb57607f821691505b60208210811415620006d257620006d1620007ba565b5b50919050565b620006e38262000860565b810181811067ffffffffffffffff8211171562000705576200070462000818565b5b80604052505050565b60006200071b8262000662565b91507fffffffffffffffffffffffffffffffffffffffffffffffffffffffffffffffff8214156200075157620007506200075c565b5b600182019050919050565b7f4e487b7100000000000000000000000000000000000000000000000000000000600052601160045260246000fd5b7f4e487b7100000000000000000000000000000000000000000000000000000000600052601260045260246000fd5b7f4e487b7100000000000000000000000000000000000000000000000000000000600052602260045260246000fd5b7f4e487b7100000000000000000000000000000000000000000000000000000000600052603260045260246000fd5b7f4e487b7100000000000000000000000000000000000000000000000000000000600052604160045260246000fd5b600080fd5b600080fd5b600080fd5b600080fd5b600080fd5b6000601f19601f8301169050919050565b7f32206f72206d6f72652063616e6469646174657320617265207265717569726560008201527f6400000000000000000000000000000000000000000000000000000000000000602082015250565b620008cb8162000662565b8114620008d757600080fd5b50565b60805160601c610d8362000900600039600081816104ff01526106050152610d836000f3fe608060405234801561001057600080fd5b50600436106100885760003560e01c80634515c50c1161005b5780634515c50c14610116578063462e91ec14610134578063c3403ddf14610150578063dba6335f1461016e57610088565b80630121b93f1461008d5780631d7b90e0146100a95780631ec6b60a146100c75780633477ee2e146100e5575b600080fd5b6100a760048036038101906100a29190610798565b61018c565b005b6100b161031f565b6040516100be9190610945565b60405180910390f35b6100cf61041a565b6040516100dc9190610997565b60405180910390f35b6100ff60048036038101906100fa9190610798565b610420565b60405161010d929190610967565b60405180910390f35b61011e6104dc565b60405161012b9190610997565b60405180910390f35b61014e6004803603810190610149919061074f565b6104fd565b005b6101586105fd565b6040516101659190610997565b60405180910390f35b610176610603565b604051610183919061092a565b60405180910390f35b60035442106101c7576040517f528d5d6000000000000000000000000000000000000000000000000000000000815260040160405180910390fd5b600115156000803373ffffffffffffffffffffffffffffffffffffffff1673ffffffffffffffffffffffffffffffffffffffff16815260200190815260200160002060009054906101000a900460ff1615151415610251576040517f21621c3e00000000000000000000000000000000000000000000000000000000815260040160405180910390fd5b60016000803373ffffffffffffffffffffffffffffffffffffffff1673ffffffffffffffffffffffffffffffffffffffff16815260200190815260200160002060006101000a81548160ff021916908315150217905550600181815481106102bc576102bb610cb3565b5b906000526020600020906002020160010160008154809291906102de90610bdd565b91905055507f76548a3a256b6cc0ab1aa5aa2fe5810e482cd6c88ed721e87febc96fcaab183a81336040516103149291906109b2565b60405180910390a150565b60606001805480602002602001604051908101604052809291908181526020016000905b82821015610411578382906000526020600020906002020160405180604001604052908160008201805461037690610b7a565b80601f01602080910402602001604051908101604052809291908181526020018280546103a290610b7a565b80156103ef5780601f106103c4576101008083540402835291602001916103ef565b820191906000526020600020905b8154815290600101906020018083116103d257829003601f168201915b5050505050815260200160018201548152505081526020019060010190610343565b50505050905090565b60025481565b6001818154811061043057600080fd5b906000526020600020906002020160009150905080600001805461045390610b7a565b80601f016020809104026020016040519081016040528092919081815260200182805461047f90610b7a565b80156104cc5780601f106104a1576101008083540402835291602001916104cc565b820191906000526020600020905b8154815290600101906020018083116104af57829003601f168201915b5050505050908060010154905082565b6000603c426003546104ee9190610ac8565b6104f89190610a97565b905090565b7f000000000000000000000000000000000000000000000000000000000000000073ffffffffffffffffffffffffffffffffffffffff163373ffffffffffffffffffffffffffffffffffffffff161461055557600080fd5b6003544210610590576040517f528d5d6000000000000000000000000000000000000000000000000000000000815260040160405180910390fd5b600160405180604001604052808381526020016000815250908060018154018082558091505060019003906000526020600020906002020160009091909190915060008201518160000190805190602001906105ed929190610627565b5060208201518160010155505050565b60035481565b7f000000000000000000000000000000000000000000000000000000000000000081565b82805461063390610b7a565b90600052602060002090601f016020900481019282610655576000855561069c565b82601f1061066e57805160ff191683800117855561069c565b8280016001018555821561069c579182015b8281111561069b578251825591602001919060010190610680565b5b5090506106a991906106ad565b5090565b5b808211156106c65760008160009055506001016106ae565b5090565b60006106dd6106d884610a00565b6109db565b9050828152602081018484840111156106f9576106f8610d16565b5b610704848285610b38565b509392505050565b600082601f83011261072157610720610d11565b5b81356107318482602086016106ca565b91505092915050565b60008135905061074981610d36565b92915050565b60006020828403121561076557610764610d20565b5b600082013567ffffffffffffffff81111561078357610782610d1b565b5b61078f8482850161070c565b91505092915050565b6000602082840312156107ae576107ad610d20565b5b60006107bc8482850161073a565b91505092915050565b60006107d183836108cf565b905092915050565b6107e281610afc565b82525050565b60006107f382610a41565b6107fd8185610a64565b93508360208202850161080f85610a31565b8060005b8581101561084b578484038952815161082c85826107c5565b945061083783610a57565b925060208a01995050600181019050610813565b50829750879550505050505092915050565b600061086882610a4c565b6108728185610a75565b9350610882818560208601610b47565b61088b81610d25565b840191505092915050565b60006108a182610a4c565b6108ab8185610a86565b93506108bb818560208601610b47565b6108c481610d25565b840191505092915050565b600060408301600083015184820360008601526108ec828261085d565b9150506020830151610901602086018261090c565b508091505092915050565b61091581610b2e565b82525050565b61092481610b2e565b82525050565b600060208201905061093f60008301846107d9565b92915050565b6000602082019050818103600083015261095f81846107e8565b905092915050565b600060408201905081810360008301526109818185610896565b9050610990602083018461091b565b9392505050565b60006020820190506109ac600083018461091b565b92915050565b60006040820190506109c7600083018561091b565b6109d460208301846107d9565b9392505050565b60006109e56109f6565b90506109f18282610bac565b919050565b6000604051905090565b600067ffffffffffffffff821115610a1b57610a1a610ce2565b5b610a2482610d25565b9050602081019050919050565b6000819050602082019050919050565b600081519050919050565b600081519050919050565b6000602082019050919050565b600082825260208201905092915050565b600082825260208201905092915050565b600082825260208201905092915050565b6000610aa282610b2e565b9150610aad83610b2e565b925082610abd57610abc610c55565b5b828204905092915050565b6000610ad382610b2e565b9150610ade83610b2e565b925082821015610af157610af0610c26565b5b828203905092915050565b6000610b0782610b0e565b9050919050565b600073ffffffffffffffffffffffffffffffffffffffff82169050919050565b6000819050919050565b82818337600083830152505050565b60005b83811015610b65578082015181840152602081019050610b4a565b83811115610b74576000848401525b50505050565b60006002820490506001821680610b9257607f821691505b60208210811415610ba657610ba5610c84565b5b50919050565b610bb582610d25565b810181811067ffffffffffffffff82111715610bd457610bd3610ce2565b5b80604052505050565b6000610be882610b2e565b91507fffffffffffffffffffffffffffffffffffffffffffffffffffffffffffffffff821415610c1b57610c1a610c26565b5b600182019050919050565b7f4e487b7100000000000000000000000000000000000000000000000000000000600052601160045260246000fd5b7f4e487b7100000000000000000000000000000000000000000000000000000000600052601260045260246000fd5b7f4e487b7100000000000000000000000000000000000000000000000000000000600052602260045260246000fd5b7f4e487b7100000000000000000000000000000000000000000000000000000000600052603260045260246000fd5b7f4e487b7100000000000000000000000000000000000000000000000000000000600052604160045260246000fd5b600080fd5b600080fd5b600080fd5b600080fd5b6000601f19601f8301169050919050565b610d3f81610b2e565b8114610d4a57600080fd5b5056fea2646970667358221220a18050b4d9a5e4e32faa6481f1266ceda67715c427f1cd2664da7883e5e8a61564736f6c63430008070033",
  "devdoc": {
    "kind": "dev",
    "methods": {},
    "version": 1
  },
  "userdoc": {
    "kind": "user",
    "methods": {},
    "version": 1
  },
  "storageLayout": {
    "storage": [
      {
        "astId": 37,
        "contract": "contracts/Voting.sol:Voting",
        "label": "voters",
        "offset": 0,
        "slot": "0",
        "type": "t_mapping(t_address,t_bool)"
      },
      {
        "astId": 41,
        "contract": "contracts/Voting.sol:Voting",
        "label": "candidates",
        "offset": 0,
        "slot": "1",
        "type": "t_array(t_struct(Candidate)31_storage)dyn_storage"
      },
      {
        "astId": 43,
        "contract": "contracts/Voting.sol:Voting",
        "label": "startVoting",
        "offset": 0,
        "slot": "2",
        "type": "t_uint256"
      },
      {
        "astId": 45,
        "contract": "contracts/Voting.sol:Voting",
        "label": "endVoting",
        "offset": 0,
        "slot": "3",
        "type": "t_uint256"
      }
    ],
    "types": {
      "t_address": {
        "encoding": "inplace",
        "label": "address",
        "numberOfBytes": "20"
      },
      "t_array(t_struct(Candidate)31_storage)dyn_storage": {
        "base": "t_struct(Candidate)31_storage",
        "encoding": "dynamic_array",
        "label": "struct Voting.Candidate[]",
        "numberOfBytes": "32"
      },
      "t_bool": {
        "encoding": "inplace",
        "label": "bool",
        "numberOfBytes": "1"
      },
      "t_mapping(t_address,t_bool)": {
        "encoding": "mapping",
        "key": "t_address",
        "label": "mapping(address => bool)",
        "numberOfBytes": "32",
        "value": "t_bool"
      },
      "t_string_storage": {
        "encoding": "bytes",
        "label": "string",
        "numberOfBytes": "32"
      },
      "t_struct(Candidate)31_storage": {
        "encoding": "inplace",
        "label": "struct Voting.Candidate",
        "members": [
          {
            "astId": 28,
            "contract": "contracts/Voting.sol:Voting",
            "label": "name",
            "offset": 0,
            "slot": "0",
            "type": "t_string_storage"
          },
          {
            "astId": 30,
            "contract": "contracts/Voting.sol:Voting",
            "label": "vote",
            "offset": 0,
            "slot": "1",
            "type": "t_uint256"
          }
        ],
        "numberOfBytes": "64"
      },
      "t_uint256": {
        "encoding": "inplace",
        "label": "uint256",
        "numberOfBytes": "32"
      }
    }
  }
}