{
  "address": "0x190CD0b8536035368ce8211945Fd5F156C016caD",
  "abi": [
    {
      "inputs": [
        {
          "internalType": "string[]",
          "name": "_candidateName",
          "type": "string[]"
        },
        {
          "internalType": "uint256",
          "name": "_votingTime",
          "type": "uint256"
        }
      ],
      "stateMutability": "nonpayable",
      "type": "constructor"
    },
    {
      "inputs": [],
      "name": "Voting_is_over",
      "type": "error"
    },
    {
      "anonymous": false,
      "inputs": [
        {
          "indexed": false,
          "internalType": "uint256",
          "name": "endVoting",
          "type": "uint256"
        }
      ],
      "name": "Voting__endVoting",
      "type": "event"
    },
    {
      "inputs": [
        {
          "internalType": "string",
          "name": "_name",
          "type": "string"
        }
      ],
      "name": "addCandidate",
      "outputs": [],
      "stateMutability": "nonpayable",
      "type": "function"
    },
    {
      "inputs": [
        {
          "internalType": "uint256",
          "name": "",
          "type": "uint256"
        }
      ],
      "name": "candidates",
      "outputs": [
        {
          "internalType": "string",
          "name": "name",
          "type": "string"
        },
        {
          "internalType": "uint256",
          "name": "vote",
          "type": "uint256"
        }
      ],
      "stateMutability": "view",
      "type": "function"
    },
    {
      "inputs": [],
      "name": "endVoting",
      "outputs": [
        {
          "internalType": "uint256",
          "name": "",
          "type": "uint256"
        }
      ],
      "stateMutability": "view",
      "type": "function"
    },
    {
      "inputs": [],
      "name": "i_owner",
      "outputs": [
        {
          "internalType": "address",
          "name": "",
          "type": "address"
        }
      ],
      "stateMutability": "view",
      "type": "function"
    },
    {
      "inputs": [],
      "name": "showCandidates",
      "outputs": [
        {
          "components": [
            {
              "internalType": "string",
              "name": "name",
              "type": "string"
            },
            {
              "internalType": "uint256",
              "name": "vote",
              "type": "uint256"
            }
          ],
          "internalType": "struct Voting.Candidate[]",
          "name": "",
          "type": "tuple[]"
        }
      ],
      "stateMutability": "view",
      "type": "function"
    },
    {
      "inputs": [],
      "name": "showLeftTime",
      "outputs": [
        {
          "internalType": "uint256",
          "name": "",
          "type": "uint256"
        }
      ],
      "stateMutability": "view",
      "type": "function"
    },
    {
      "inputs": [],
      "name": "startVoting",
      "outputs": [
        {
          "internalType": "uint256",
          "name": "",
          "type": "uint256"
        }
      ],
      "stateMutability": "view",
      "type": "function"
    },
    {
      "inputs": [
        {
          "internalType": "uint256",
          "name": "_index",
          "type": "uint256"
        }
      ],
      "name": "vote",
      "outputs": [],
      "stateMutability": "nonpayable",
      "type": "function"
    }
  ],
  "transactionHash": "0x4d6b7f0d092369cd7a5a702b36bf3c97e7069f98e50bc7a45ba114115a0bb1d1",
  "args": [
    [
      "Vitalii",
      "Kovtun"
    ],
    60
  ],
  "numDeployments": 1,
  "solcInputHash": "3b4fc064469093266cafabc0e70ff129",
  "bytecode": "0x60a06040523480156200001157600080fd5b5060405162001597380380620015978339818101604052810190620000379190620003f0565b60018251116200007e576040517f08c379a000000000000000000000000000000000000000000000000000000000815260040162000075906200048e565b60405180910390fd5b42600281905550603c8162000094919062000601565b42620000a191906200056c565b6003819055503373ffffffffffffffffffffffffffffffffffffffff1660808173ffffffffffffffffffffffffffffffffffffffff1660601b8152505060005b82518110156200018a57600160405180604001604052808584815181106200010e576200010d620007e9565b5b6020026020010151815260200160008152509080600181540180825580915050600190039060005260206000209060020201600090919091909150600082015181600001908051906020019062000167929190620001dc565b50602082015181600101555050808062000181906200070e565b915050620000e1565b507f930628807c30271d732b56982e2189a12ab34b98ddd82c23135f25cefacbacca603c600354620001bd9190620005c9565b604051620001cc9190620004b0565b60405180910390a15050620008da565b828054620001ea90620006a2565b90600052602060002090601f0160209004810192826200020e57600085556200025a565b82601f106200022957805160ff19168380011785556200025a565b828001600101855582156200025a579182015b82811115620002595782518255916020019190600101906200023c565b5b5090506200026991906200026d565b5090565b5b80821115620002885760008160009055506001016200026e565b5090565b6000620002a36200029d84620004f6565b620004cd565b90508083825260208201905082856020860282011115620002c957620002c86200084c565b5b60005b858110156200031e57815167ffffffffffffffff811115620002f357620002f262000847565b5b808601620003028982620003a6565b85526020850194506020840193505050600181019050620002cc565b5050509392505050565b60006200033f620003398462000525565b620004cd565b9050828152602081018484840111156200035e576200035d62000851565b5b6200036b8482856200066c565b509392505050565b600082601f8301126200038b576200038a62000847565b5b81516200039d8482602086016200028c565b91505092915050565b600082601f830112620003be57620003bd62000847565b5b8151620003d084826020860162000328565b91505092915050565b600081519050620003ea81620008c0565b92915050565b600080604083850312156200040a57620004096200085b565b5b600083015167ffffffffffffffff8111156200042b576200042a62000856565b5b620004398582860162000373565b92505060206200044c85828601620003d9565b9150509250929050565b6000620004656021836200055b565b9150620004728262000871565b604082019050919050565b620004888162000662565b82525050565b60006020820190508181036000830152620004a98162000456565b9050919050565b6000602082019050620004c760008301846200047d565b92915050565b6000620004d9620004ec565b9050620004e78282620006d8565b919050565b6000604051905090565b600067ffffffffffffffff82111562000514576200051362000818565b5b602082029050602081019050919050565b600067ffffffffffffffff82111562000543576200054262000818565b5b6200054e8262000860565b9050602081019050919050565b600082825260208201905092915050565b6000620005798262000662565b9150620005868362000662565b9250827fffffffffffffffffffffffffffffffffffffffffffffffffffffffffffffffff03821115620005be57620005bd6200075c565b5b828201905092915050565b6000620005d68262000662565b9150620005e38362000662565b925082620005f657620005f56200078b565b5b828204905092915050565b60006200060e8262000662565b91506200061b8362000662565b9250817fffffffffffffffffffffffffffffffffffffffffffffffffffffffffffffffff04831182151516156200065757620006566200075c565b5b828202905092915050565b6000819050919050565b60005b838110156200068c5780820151818401526020810190506200066f565b838111156200069c576000848401525b50505050565b60006002820490506001821680620006bb57607f821691505b60208210811415620006d257620006d1620007ba565b5b50919050565b620006e38262000860565b810181811067ffffffffffffffff8211171562000705576200070462000818565b5b80604052505050565b60006200071b8262000662565b91507fffffffffffffffffffffffffffffffffffffffffffffffffffffffffffffffff8214156200075157620007506200075c565b5b600182019050919050565b7f4e487b7100000000000000000000000000000000000000000000000000000000600052601160045260246000fd5b7f4e487b7100000000000000000000000000000000000000000000000000000000600052601260045260246000fd5b7f4e487b7100000000000000000000000000000000000000000000000000000000600052602260045260246000fd5b7f4e487b7100000000000000000000000000000000000000000000000000000000600052603260045260246000fd5b7f4e487b7100000000000000000000000000000000000000000000000000000000600052604160045260246000fd5b600080fd5b600080fd5b600080fd5b600080fd5b600080fd5b6000601f19601f8301169050919050565b7f32206f72206d6f72652063616e6469646174657320617265207265717569726560008201527f6400000000000000000000000000000000000000000000000000000000000000602082015250565b620008cb8162000662565b8114620008d757600080fd5b50565b60805160601c610c97620009006000396000818161043c01526105420152610c976000f3fe608060405234801561001057600080fd5b50600436106100885760003560e01c80634515c50c1161005b5780634515c50c14610116578063462e91ec14610134578063c3403ddf14610150578063dba6335f1461016e57610088565b80630121b93f1461008d5780631d7b90e0146100a95780631ec6b60a146100c75780633477ee2e146100e5575b600080fd5b6100a760048036038101906100a291906106d5565b61018c565b005b6100b161025c565b6040516100be9190610882565b60405180910390f35b6100cf610357565b6040516100dc91906108d4565b60405180910390f35b6100ff60048036038101906100fa91906106d5565b61035d565b60405161010d9291906108a4565b60405180910390f35b61011e610419565b60405161012b91906108d4565b60405180910390f35b61014e6004803603810190610149919061068c565b61043a565b005b61015861053a565b60405161016591906108d4565b60405180910390f35b610176610540565b6040516101839190610867565b60405180910390f35b60035442106101c7576040517f528d5d6000000000000000000000000000000000000000000000000000000000815260040160405180910390fd5b60016000803373ffffffffffffffffffffffffffffffffffffffff1673ffffffffffffffffffffffffffffffffffffffff16815260200190815260200160002060006101000a81548160ff0219169083151502179055506001818154811061023257610231610bc7565b5b9060005260206000209060020201600101600081548092919061025490610af1565b919050555050565b60606001805480602002602001604051908101604052809291908181526020016000905b8282101561034e57838290600052602060002090600202016040518060400160405290816000820180546102b390610a8e565b80601f01602080910402602001604051908101604052809291908181526020018280546102df90610a8e565b801561032c5780601f106103015761010080835404028352916020019161032c565b820191906000526020600020905b81548152906001019060200180831161030f57829003601f168201915b5050505050815260200160018201548152505081526020019060010190610280565b50505050905090565b60025481565b6001818154811061036d57600080fd5b906000526020600020906002020160009150905080600001805461039090610a8e565b80601f01602080910402602001604051908101604052809291908181526020018280546103bc90610a8e565b80156104095780601f106103de57610100808354040283529160200191610409565b820191906000526020600020905b8154815290600101906020018083116103ec57829003601f168201915b5050505050908060010154905082565b6000603c4260035461042b91906109dc565b61043591906109ab565b905090565b7f000000000000000000000000000000000000000000000000000000000000000073ffffffffffffffffffffffffffffffffffffffff163373ffffffffffffffffffffffffffffffffffffffff161461049257600080fd5b60035442106104cd576040517f528d5d6000000000000000000000000000000000000000000000000000000000815260040160405180910390fd5b6001604051806040016040528083815260200160008152509080600181540180825580915050600190039060005260206000209060020201600090919091909150600082015181600001908051906020019061052a929190610564565b5060208201518160010155505050565b60035481565b7f000000000000000000000000000000000000000000000000000000000000000081565b82805461057090610a8e565b90600052602060002090601f01602090048101928261059257600085556105d9565b82601f106105ab57805160ff19168380011785556105d9565b828001600101855582156105d9579182015b828111156105d85782518255916020019190600101906105bd565b5b5090506105e691906105ea565b5090565b5b808211156106035760008160009055506001016105eb565b5090565b600061061a61061584610914565b6108ef565b90508281526020810184848401111561063657610635610c2a565b5b610641848285610a4c565b509392505050565b600082601f83011261065e5761065d610c25565b5b813561066e848260208601610607565b91505092915050565b60008135905061068681610c4a565b92915050565b6000602082840312156106a2576106a1610c34565b5b600082013567ffffffffffffffff8111156106c0576106bf610c2f565b5b6106cc84828501610649565b91505092915050565b6000602082840312156106eb576106ea610c34565b5b60006106f984828501610677565b91505092915050565b600061070e838361080c565b905092915050565b61071f81610a10565b82525050565b600061073082610955565b61073a8185610978565b93508360208202850161074c85610945565b8060005b8581101561078857848403895281516107698582610702565b94506107748361096b565b925060208a01995050600181019050610750565b50829750879550505050505092915050565b60006107a582610960565b6107af8185610989565b93506107bf818560208601610a5b565b6107c881610c39565b840191505092915050565b60006107de82610960565b6107e8818561099a565b93506107f8818560208601610a5b565b61080181610c39565b840191505092915050565b60006040830160008301518482036000860152610829828261079a565b915050602083015161083e6020860182610849565b508091505092915050565b61085281610a42565b82525050565b61086181610a42565b82525050565b600060208201905061087c6000830184610716565b92915050565b6000602082019050818103600083015261089c8184610725565b905092915050565b600060408201905081810360008301526108be81856107d3565b90506108cd6020830184610858565b9392505050565b60006020820190506108e96000830184610858565b92915050565b60006108f961090a565b90506109058282610ac0565b919050565b6000604051905090565b600067ffffffffffffffff82111561092f5761092e610bf6565b5b61093882610c39565b9050602081019050919050565b6000819050602082019050919050565b600081519050919050565b600081519050919050565b6000602082019050919050565b600082825260208201905092915050565b600082825260208201905092915050565b600082825260208201905092915050565b60006109b682610a42565b91506109c183610a42565b9250826109d1576109d0610b69565b5b828204905092915050565b60006109e782610a42565b91506109f283610a42565b925082821015610a0557610a04610b3a565b5b828203905092915050565b6000610a1b82610a22565b9050919050565b600073ffffffffffffffffffffffffffffffffffffffff82169050919050565b6000819050919050565b82818337600083830152505050565b60005b83811015610a79578082015181840152602081019050610a5e565b83811115610a88576000848401525b50505050565b60006002820490506001821680610aa657607f821691505b60208210811415610aba57610ab9610b98565b5b50919050565b610ac982610c39565b810181811067ffffffffffffffff82111715610ae857610ae7610bf6565b5b80604052505050565b6000610afc82610a42565b91507fffffffffffffffffffffffffffffffffffffffffffffffffffffffffffffffff821415610b2f57610b2e610b3a565b5b600182019050919050565b7f4e487b7100000000000000000000000000000000000000000000000000000000600052601160045260246000fd5b7f4e487b7100000000000000000000000000000000000000000000000000000000600052601260045260246000fd5b7f4e487b7100000000000000000000000000000000000000000000000000000000600052602260045260246000fd5b7f4e487b7100000000000000000000000000000000000000000000000000000000600052603260045260246000fd5b7f4e487b7100000000000000000000000000000000000000000000000000000000600052604160045260246000fd5b600080fd5b600080fd5b600080fd5b600080fd5b6000601f19601f8301169050919050565b610c5381610a42565b8114610c5e57600080fd5b5056fea26469706673582212206c682e49168f744c7688c4d63ec278f6df32fccba557b898d9ba9578663ae56464736f6c63430008070033",
  "devdoc": {
    "kind": "dev",
    "methods": {},
    "version": 1
  },
  "userdoc": {
    "kind": "user",
    "methods": {},
    "version": 1
  },
  "storageLayout": {
    "storage": [
      {
        "astId": 31,
        "contract": "contracts/Voting.sol:Voting",
        "label": "voters",
        "offset": 0,
        "slot": "0",
        "type": "t_mapping(t_address,t_bool)"
      },
      {
        "astId": 35,
        "contract": "contracts/Voting.sol:Voting",
        "label": "candidates",
        "offset": 0,
        "slot": "1",
        "type": "t_array(t_struct(Candidate)25_storage)dyn_storage"
      },
      {
        "astId": 37,
        "contract": "contracts/Voting.sol:Voting",
        "label": "startVoting",
        "offset": 0,
        "slot": "2",
        "type": "t_uint256"
      },
      {
        "astId": 39,
        "contract": "contracts/Voting.sol:Voting",
        "label": "endVoting",
        "offset": 0,
        "slot": "3",
        "type": "t_uint256"
      }
    ],
    "types": {
      "t_address": {
        "encoding": "inplace",
        "label": "address",
        "numberOfBytes": "20"
      },
      "t_array(t_struct(Candidate)25_storage)dyn_storage": {
        "base": "t_struct(Candidate)25_storage",
        "encoding": "dynamic_array",
        "label": "struct Voting.Candidate[]",
        "numberOfBytes": "32"
      },
      "t_bool": {
        "encoding": "inplace",
        "label": "bool",
        "numberOfBytes": "1"
      },
      "t_mapping(t_address,t_bool)": {
        "encoding": "mapping",
        "key": "t_address",
        "label": "mapping(address => bool)",
        "numberOfBytes": "32",
        "value": "t_bool"
      },
      "t_string_storage": {
        "encoding": "bytes",
        "label": "string",
        "numberOfBytes": "32"
      },
      "t_struct(Candidate)25_storage": {
        "encoding": "inplace",
        "label": "struct Voting.Candidate",
        "members": [
          {
            "astId": 22,
            "contract": "contracts/Voting.sol:Voting",
            "label": "name",
            "offset": 0,
            "slot": "0",
            "type": "t_string_storage"
          },
          {
            "astId": 24,
            "contract": "contracts/Voting.sol:Voting",
            "label": "vote",
            "offset": 0,
            "slot": "1",
            "type": "t_uint256"
          }
        ],
        "numberOfBytes": "64"
      },
      "t_uint256": {
        "encoding": "inplace",
        "label": "uint256",
        "numberOfBytes": "32"
      }
    }
  }
}